:020000040800F2
:10000000A806002089010008E9050008E9040008A5
:10001000D105000843020008E911000800000000B3
:10002000000000000000000000000000ED0C0008CF
:100030002103000800000000D10A0008D90D0008C3
:10004000A3010008A3010008A3010008A301000800
:10005000A3010008A3010008A3010008A3010008F0
:10006000A3010008A3010008A3010008A3010008E0
:10007000A3010008A3010008A3010008A3010008D0
:10008000A3010008A3010008A3010008A3010008C0
:10009000A3010008A3010008A3010008A3010008B0
:1000A000A3010008A3010008A3010008A3010008A0
:1000B0003D0E0008A3010008A3010008A3010008E9
:1000C000A3010008A3010008A3010008A301000880
:1000D000A3010008A3010008A3010008A301000870
:1000E000A3010008A3010008A301000800F002F822
:1000F00000F03AF80AA090E8000C82448344AAF188
:100100000107DA4501D100F02FF8AFF2090EBAE885
:100110000F0013F0010F18BFFB1A43F0010318473B
:10012000F81B0000181C0000103A24BF78C878C1E2
:10013000FAD8520724BF30C830C144BF04680C60ED
:10014000704700000023002400250026103A28BF35
:1001500078C1FBD8520728BF30C148BF0B60704739
:100160001FB51FBD10B510BD00F031F81146FFF7E7
:10017000F7FF01F03BF800F04FF803B4FFF7F2FF90
:1001800003BC00F057F800000948804709480047C1
:10019000FEE7FEE7FEE7FEE7FEE7FEE7FEE7FEE737
:1001A000FEE7FEE704480549054A064B7047000094
:1001B000DD0D0008ED000008A8000020A8060020C2
:1001C000A8020020A80200207047704770477546BB
:1001D00000F02CF8AE4605006946534620F00700B3
:1001E000854618B020B5FFF7DDFFBDE820404FF091
:1001F00000064FF000074FF000084FF0000B21F011
:100200000701AC46ACE8C009ACE8C009ACE8C009DD
:10021000ACE8C0098D46704710B50446AFF30080C6
:100220002046BDE81040FFF7A8BF00000048704717
:100230004400002001491820ABBEFEE72600020062
:10024000704700BFFEE7000070B504460D464FF44E
:1002500000710C4800F03AF94FF48071094800F041
:1002600033F91021074800F031F92021054800F04A
:100270002BF9A1B2044800F022FFA9B2024800F015
:1002800020FF70BD000C0140002C014070B50446F9
:100290000D46002C0DDB4FF400711F4800F016F9DD
:1002A0004FF480711C4800F00FF9A1B21B4800F018
:1002B00006FF002C10DA4FF40071174800F004F923
:1002C0004FF48071144800F001F940F21450001B03
:1002D00081B2124800F0F3FE002D0BDB10210E4816
:1002E00000F0F4F820210C4800F0EEF8A9B20B4819
:1002F00000F0E7FE002D0EDA1021074800F0E4F8C8
:100300002021054800F0E2F840F21450401B81B271
:10031000024800F0D6FE70BD000C0140002C0140E8
:1003200070472DE9F04102460025002600200023F9
:100330000024002791F803C00CF00F0591F803C0CA
:100340000CF0100CBCF1000F03D091F802C04CEA85
:10035000050591F800C0BCF1000F31D014680020F1
:100360002BE04FF0010C0CFA00F3B1F800C00CEADE
:1003700003069E4220D183004FF00F0C0CFA03F7C6
:10038000BC4305FA03FC4CEA040491F803C0BCF139
:10039000280F06D14FF0010C0CFA00FCC2F814C073
:1003A0000AE091F803C0BCF1480F05D14FF0010CF1
:1003B0000CFA00FCC2F810C0401C0828D1D314600D
:1003C000B1F800C0BCF1FF0F34DD546800202EE00E
:1003D00000F1080C4FF0010808FA0CF3B1F800C066
:1003E0000CEA03069E4221D183004FF00F0C0CFA59
:1003F00003F7BC4305FA03FC4CEA040491F803C07C
:10040000BCF1280F05D100F1080C08FA0CF8C2F86D
:10041000148091F803C0BCF1480F07D100F1080C1B
:100420004FF0010808FA0CF8C2F81080401C0828A8
:10043000CED35460BDE8F081F0B50A460023002415
:100440000021002500F00046B6F1004F02D11D4EFC
:10045000F16901E01B4E7168C0F3034583B200F4FB
:100460004016B6F5401F08D121F07061154E766830
:1004700026F07066134F7E6012E000F48016B6F529
:10048000801F06D1032606FA05F4A14341F07061EE
:1004900006E0460D360103FA06F6B14341F07061FD
:1004A00022B1460D360103FA06F6314300F000464C
:1004B000B6F1004F02D1034EF16101E0014E7160CF
:1004C000F0BD0000000001404161704701617047CC
:1004D0000AB1016100E04161704700000148007805
:1004E000704700002800002000BFFEE708B501218A
:1004F000102000F081FB4FF48040ADF80000482050
:100500008DF8030003208DF8020069461C48FFF7B0
:1005100008FF0121102000F06FFB4FF40050ADF8F0
:10052000000048208DF8030003208DF80200694682
:100530001348FFF7F6FE0121102000F05DFB4FF499
:100540000040ADF8000048208DF8030003208DF82E
:10055000020069460A48FFF7E4FE0121082000F086
:100560004BFB4FF48050ADF8000048208DF803009D
:1005700003208DF8020069460248FFF7D2FE08BD4D
:1005800000100140000C014008B50121092000F0D5
:1005900033FB01210C48FFF74FFF0121084600F013
:1005A0002BFB0121082000F027FB4FF44C70ADF825
:1005B000000010208DF8030003208DF8020069462A
:1005C0000248FFF7AEFE08BD00023000000C0140FB
:1005D00000BFFEE710B5FFF7D7FF00F05BFEFFF7A7
:1005E00085FF00F0C3FD10BD7047000070B500210D
:1005F00000230F22C47804B3154C246804F4E0648B
:10060000C4F5E064210AC1F10403CA40447804FA45
:1006100003F184781440214309010E4C0678A1555A
:10062000047804F01F050124AC4005786D11AD007D
:1006300005F1E025C5F8004109E0047804F01F0544
:100640000124AC40044D0678761145F8264070BD73
:100650000CED00E000E400E080E100E0024901432D
:10066000024A1160704700000000FA050CED00E03E
:1006700001480078704700002C00002070B500246D
:100680000EE00021204600F00CF9002504E00020D7
:1006900000F0EBF9681CC5B2802DF8DB601CC4B219
:1006A000082CEEDB70BD000008B50121082000F029
:1006B000A3FA10208DF803000320ADF800008DF898
:1006C000020069460548FFF72CFE02210348FFF7A8
:1006D000FDFE01210148FFF7F7FE08BD000C0140B7
:1006E00008B50121082000F087FA14208DF80300D6
:1006F00003208DF802004FF48060ADF800006946D9
:100700000A48FFF70EFE4FF40060ADF8000069469E
:100710000648FFF706FE012291020448FFF7D8FEC3
:100720000122D1020148FFF7D3FE08BD000C0140B1
:1007300070B50546002415E08020204100EA05023E
:100740004FF400610E48FFF7C3FE012291020C48EE
:10075000FFF7BEFE00224FF480610948FFF7B8FEA4
:10076000601CC4B2082CE7DB012291020448FFF7A9
:10077000AFFE00224FF480610148FFF7A9FE70BD73
:10078000000C014010B50122D1020A48FFF7A0FE7B
:10079000012291020748FFF79BFE00224FF40061FF
:1007A0000448FFF795FE00224FF480610148FFF7EF
:1007B0008FFE10BD000C014010B500224FF4006107
:1007C0000648FFF785FE012291020448FFF780FEEC
:1007D0000122D1020148FFF77BFE10BD000C014051
:1007E00070B5002406E0002500E06D1CB5F57A7FA9
:1007F000FBD3641CB4F57A7FF5D3FFF771FFAE200D
:1008000000F023F9D52000F020F9802000F01DF938
:10081000A82000F01AF93F2000F017F9D32000F0CB
:1008200014F9002000F011F9402000F00EF9A12089
:1008300000F00BF9C82000F008F9DA2000F005F903
:10084000122000F002F9812000F0FFF8CF2000F024
:10085000FCF8D92000F0F9F8F12000F0F6F8DB20E0
:1008600000F0F3F8302000F0F0F8A42000F0EDF8EC
:10087000A62000F0EAF88D2000F0E7F8142000F040
:10088000E4F8AF2000F0E1F8FFF7F8FE70BD10B516
:100890000246012000E050430B1EA1F10101FAD1F4
:1008A00010BD70B505460C4645F0B00000F0CDF81F
:1008B000102141EA141000F0C8F804F00F0000F015
:1008C000C4F870BD2DE9F04780460E4617461D4618
:1008D000002412E0281B411E0220FFF7D8FFB7FBBF
:1008E000F0F000F0010000F130093019C1B24A46C1
:1008F000404600F007F8601CC4B2AC42EADBBDE839
:10090000F08700002DE9F04105460E461746721E9D
:10091000D206110E6A1E5206100EFFF7C2FF002407
:1009200009E0A7F12001134A02EB0111085D00F074
:100930009CF8601CC4B2082CF3DB721ED206110EA8
:100940006A1E012303EB4202D0B2FFF7AAFF002484
:100950000BE0A7F12001074A02EB011204F10801A4
:10096000505C00F082F8601CC4B2082CF1DBBDE8DA
:10097000F0810000261700082DE9F04780460E465A
:1009800017461D46002415E0281B411E0A20FFF7CC
:100990007EFFB7FBF0F00A21B0FBF1F201FB120081
:1009A00000F130093019C1B24A464046FFF7AAFFAC
:1009B000601CC4B2AC42E7DBBDE8F0872DE9F0472C
:1009C0008146884615461E46002D06DB2B224146F1
:1009D0004846FFF797FF2F4605E02D22414648463F
:1009E000FFF790FF6F42002417E0301B411E0A20E2
:1009F000FFF74DFFB7FBF0F00A21B0FBF1F201FB6E
:100A0000120000F1300A08EB0400401CC1B252464B
:100A10004846FFF777FF601CC4B2B442E5DBBDE88F
:100A2000F0872DE9F04107460E461546002407E001
:100A30002A5D3019C1B23846FFF764FF601CC4B2AA
:100A4000285D0028F4D1BDE8F08110B50446FFF719
:100A500099FE7820FFF76CFE0020FFF769FE204624
:100A6000FFF766FEFFF7A8FE10BD10B50446FFF7BE
:100A700089FE7820FFF75CFE4020FFF759FE2046F4
:100A8000FFF756FEFFF798FE10BD000010B50248B4
:100A9000006800F0C9FC10BD080000200148006893
:100AA000704700002400002010B50248006800F0E4
:100AB000BBFC10BD08000020014800687047000022
:100AC000100000200148006870470000140000205A
:100AD000704700002DE9F041164C174D174801688A
:100AE0001748006800F03EFC154908601548016889
:100AF0001248006800F0A2FD8046294600F0C8FCBC
:100B000006460E480168204600F0C2FC80460E49A9
:100B100000F08AFD0746314600F024FC0B490860CE
:100B200006480068074908600848006800F07CFC37
:100B3000BDE8F081000008410000104108000020DD
:100B4000400000200C0000200000C8443C000020B1
:100B50002DE9F0471A4C00251A4E1B4801681B4826
:100B6000006800F0FFFB1949086019480168164841
:100B7000006800F063FD8146314600F089FC0746BD
:100B800012480168284600F083FC81460E4801683F
:100B9000204600F07DFC8246494600F0E3FB80469B
:100BA000394600F0DFFB0B49086007480068084938
:100BB00008600848006800F037FCBDE8F0870000D6
:100BC000000048426666F640080000203800002019
:100BD0000C0000203400002029B1064AD2690243EB
:100BE000044BDA6104E0034AD2698243014BDA61C3
:100BF000704700000010024029B1064A9269024382
:100C0000044B9A6104E0034A92698243014B9A6162
:100C100070470000001002402D4800682D49096807
:100C200008442D4908602A4800682A490968401A82
:100C30002A4908602A48006827490968884207DA73
:100C4000274800682749096808442549086017E0D3
:100C50002348006820490968884207DD2048006869
:100C600020490968401A1E49086009E01C480068CC
:100C700019490968884203D1174800681849086073
:100C80001948006815490968884207DA164800685B
:100C90001449096808441449086017E012480068BC
:100CA0000E490968884207DD0F4800680D49096848
:100CB000401A0D49086009E00B48006807490968B7
:100CC000884203D105480068074908607047000062
:100CD0002400002020000020180000201C0000201C
:100CE000100000203000002014000020704710B5D4
:100CF00000F002F810BD00000CB50020019000903B
:100D00003348006840F480303149086000BF304803
:100D1000006800F4003000900198401C0190009899
:100D200018B90198B0F5A06FF1D12948006800F416
:100D3000003010B10120009001E0002000900098E8
:100D4000012843D12348006840F010002149086081
:100D50000846006820F0030008600846006840F07C
:100D6000020008601A48406819494860084640680F
:100D700048600846406840F4806048600846406823
:100D800020F47C1048600846406840F4E810486051
:100D90000846006840F08070086000BF0C4800689A
:100DA00000F000700028F9D00948406820F00300E6
:100DB000074948600846406840F00200486000BFAC
:100DC0000348406800F00C000828F9D10CBD000071
:100DD00000100240002002407047000010B5134888
:100DE000006840F001001149086008464068104959
:100DF00008400E494860084600680E4908400B4903
:100E000008600846006820F48020086008464068B2
:100E100020F4FE0048604FF41F008860FFF767FF72
:100E20004FF000600449086010BD0000001002404F
:100E30000000FFF8FFFFF6FE08ED00E070B50121AD
:100E4000880700F062F8012830D1FFF781FE0646DE
:100E500000F006FB054616480168284600F018FB1E
:100E6000044600F0E1FA13490860FFF733FE064636
:100E700000F0F6FA05460E480168284600F008FB27
:100E8000044600F0D1FA0C490860FFF7C5FE0B4894
:100E90000068401C09490860094801680948006861
:100EA000FFF7F4F90121880700F011F870BD000088
:100EB0000000002020000020240000202C00002042
:100EC0001400002010000020CA4302827047CA4369
:100ED0000282704721B1028842F00102028004E0E0
:100EE00002884FF6FE731A400280704731B1B0F8A5
:100EF000442042F40042A0F8442005E0B0F8442029
:100F0000C2F30E02A0F84420704730B5024600201C
:100F100000230024158A05EA0103958905EA0104E6
:100F200013B10CB1012000E0002030BD1AB183895B
:100F30000B43838102E083898B438381704701895E
:100F40004FF6F872114001817047000070B500241F
:100F500000220023058C4FF6EF7635400584028C85
:100F60008388048B48F6FF752C404FF6FF452C40D4
:100F70000D884FF6FF7606EA05252C434FF6DF7500
:100F80002A400D8906EA05152A434D8806EA05150B
:100F90002A43154DA84202D0144DA8421DD14FF648
:100FA0007F752A404D894FF6FF7606EA05152A43DC
:100FB0004FF6BF752A408D8806EA05152A434FF67D
:100FC000FF352B404FF2FF752B408D8906EA8505D2
:100FD0002B43CD8906EA85052B4383800483CD8886
:100FE0000587028470BD0000002C014000340140E0
:100FF0000A460021018B4FF2FF7319404FF6FF7331
:1010000003EA0223194301837047000070B50024EE
:1010100000220023058C4FF6FF6635400584028CC4
:101020008388848B4FF68F752C404FF6FC752C40CF
:101030000D882C434FF6FF552A400D894FF6FF7659
:1010400006EA05252A434D8806EA05252A43154D5B
:10105000A84202D0144DA8421DD14FF2FF752A407C
:101060004D894FF6FF7606EA05252A434FF6FF35F0
:101070002A408D8806EA05252A434EF6FF752B4047
:101080004DF6FF752B408D8906EA05152B43CD895A
:1010900006EA05152B4383808483CD8885870284E7
:1010A00070BD0000002C0140003401400A460021C0
:1010B000818B4FF6F7731940114381837047018785
:1010C0007047818770470000002202881D4B9842BC
:1010D0000ED01D4B98420BD0B0F1804F08D01B4B67
:1010E000984205D01A4B984202D01A4B984204D12C
:1010F0004FF68F731A404B881A43174B984207D00C
:10110000164B984204D04FF6FF431A40CB881A433F
:1011100002808B8883850B8803850A4B98420BD00D
:10112000094B984208D00E4B984205D00D4B98427F
:1011300002D00D4B984201D10B7A038601238382A2
:1011400070470000002C01400034014000040040C2
:1011500000080040000C0040001000400014004057
:101160000040014000440140004801401FB50121FA
:101170000846FFF731FD4FF08040FFF7E0FE00200A
:10118000ADF80A00ADF8060042F20F70ADF80800A5
:101190004720ADF8040000208DF80C0001A94FF0A5
:1011A0008040FFF791FF01218807FFF78DFE0122A4
:1011B00011469007FFF7BAFE4FF4A060FFF74EFA12
:1011C0001C208DF8000001208DF8030002208DF80E
:1011D000010001208DF802006846FFF707FA01219F
:1011E0008807FFF777FE1FBD00BFFEE7FFF7F2F9A4
:1011F000FFF75AFAFFF7F4FA25A201210846FFF794
:1012000010FC44E04FF448714FF42F70FFF71CF8C6
:10121000FFF744FC04460423224603210120FFF784
:10122000ABFBFFF725FA04460223224608210120E2
:10123000FFF7A2FBFFF752F90446042322460521DB
:101240000220FFF73FFBFFF737FC0446042322464A
:1012500005210320FFF7B2FBFFF734FC044604230B
:10126000224605211846FFF7A9FBFFF70FFC0446AD
:10127000022322460A211846FFF7A0FBFFF714FCC1
:101280000446022322460A210320FFF797FBB9E711
:10129000703A000000B589B001210420FFF7ACFCD2
:1012A0000121C802FFF7A8FC4FF47060ADF82000E0
:1012B00003208DF8220018208DF8230008A9274864
:1012C000FFF72FF840F2E730ADF8180040F2CF20DA
:1012D000ADF814000020ADF81A00ADF816008DF836
:1012E0001C0005A91E48FFF7EFFE6020ADF80400C2
:1012F0000120ADF806000020ADF80A00ADF80C00A2
:101300004FF48070ADF8100001A91548FFF71EFEDC
:101310006020ADF804000120ADF806000020ADF813
:101320000A00ADF80C004FF48070ADF8100001A970
:101330000B48FFF76BFE08210948FFF759FE08210B
:101340000748FFF7B3FE01210548FFF7C3FD012160
:101350000348FFF7CBFD09B000BD000000080140C5
:10136000002C014090EA010F48BF81F0004100F1DC
:101370006C81421A3CBF801A89184FEAD0524FF054
:101380007F4C1CEA410FA2EBD15318BF9CEA026FBD
:1013900000F03B804FF0004C4CEA00204CEA012169
:1013A00021FA03FC10EB0C0C1ED202F1FF325FEAB3
:1013B0001C2040EBC25038BF70471CF07F0F4FEA33
:1013C000400C18BFBCF17F4F38BF7047C3F12003FA
:1013D000994008BF20F00100BCF17F4F38BF704733
:1013E000A0F1C04000F01BB94FEA3C00000A40EBFE
:1013F000C25028BF1CF0FF0F4FEA400CE6D018BFC8
:10140000BCF17F4F38BF7047EAE79CEA026F05D016
:1014100010EA5C0F08BF00F00040704710B500F004
:10142000B8F800BF64FBBE3E41000B0ED3F19E0234
:1014300008D950F400034FEA032323FA02F048BF0F
:101440004042704710B500F0A4F800BF49922480D4
:10145000002070476FF0004282EA200070470000D1
:1014600010F0004148BF4042B0FA80F310FA03F296
:10147000C3F19D030BD051EAC35101EB1220530677
:1014800038BF704700F1010008BF20F0010070472D
:101490004FF47F0C1CEAD0121EBF1CEAD11392EA53
:1014A0000C0F93EA0C0F00F0478090EA010F48BF41
:1014B00042F480724FF0004C4CEA00204CEA0121CB
:1014C00002EB0302A0FB0113A2F50002002918BFE2
:1014D00043F001035B0028BF4FEA330342EB224293
:1014E0005FEA132C4CEBC2502EBFBCEB436FB2F53E
:1014F0007C0F70474FEA036CBCF1004F08BF20F02F
:101500000100B2F57C0F38BF70470BD582F0FF02A7
:1015100012F5803FC8BF704700F1C040D8BF00F04F
:101520000040704700F5000C5FEA4C0C48BF704764
:10153000B0F1C04000F073B890EA010F0CEAD1138B
:1015400048BF42F48072624538BF634504D280EAE6
:10155000010000F00040704710B500F01AF800BF1D
:101560008900013E00F007B800F009B85FEA410CBD
:101570005FEA1C6C08D080EA010000F050B85FEA16
:10158000400C5FEA1C6CF6D14FF00040A0F58000E3
:1015900070470EF1020E2EF0030E5EF8044B24424B
:1015A00004D44FEA4102B2F17F4F11D84FEA400311
:1015B000B3F17F4F0CD80ED14FEAD07CB2F17F4F00
:1015C0000CEB4C0C0CF1020C08BF4CEBD17C04E092
:1015D0004FF0080C01E04FEAD17C0CEB4C0324FAED
:1015E00003F404F00704B4F1040C06D20EEB840CEF
:1015F000BDE810404CF0010C6047DFE80CF0070834
:1016000002024FF00040A0F5800010BD08464200E5
:1016100018BFD2F1807288BF00F0004010BDFF21DA
:1016200041EAD050C005704780F0004090EA010FB9
:101630007FF59FAE81F0004100F007B890EA010FFE
:1016400048BF81F000413FF594AE421A04D882F0C1
:101650000042A0EB020011444FEAD0524FF07F4C01
:101660001CEA410FA2EBD15318BF9CEA026F4AD08B
:101670004FF0004C4CEA00204CEA012121FA03FC17
:10168000B0EB0C0C0FD412F0FE0F36D05FEA4C001A
:101690001DD5001240EBC25038BF70471CF03F0F01
:1016A00018BF70470BE0A2F101025FEA1C2040EB7B
:1016B000C25038BF70471CF07F0F18BF7047C3F18E
:1016C0002003994014BF401E20F00100704780089D
:1016D0004FEA122308BF7047B0FA80FCA2EB0C025D
:1016E000CCF1280C60FA0CF093EA122F04BF00EB47
:1016F000C25070474FEAC3707047130A5FEADC10AC
:1017000008BF7047F6E79CEA026F04D010EA5C0F4E
:1017100008BF0020704710B5FFF73BFF40DFF63EE3
:1017200081F0004070470000000000000000000051
:10173000000000000000000000F8000000000000B1
:1017400000333000000000100C06100C06000000F2
:1017500000000000000040C07840C0784000043F16
:1017600004043F040400007088FC083000000018E6
:1017700020FF211E0000F008F000E018000000210A
:101780001C031E211E0000F00888700000001E21AE
:1017900023241927211010160E000000000000005D
:1017A000000000000000000000E01804020000003B
:1017B00000071820400000020418E000000000406C
:1017C000201807000000404080F0804040000202E6
:1017D000010F01020200000000F000000000010102
:1017E000011F01010100000000000000000080B0A6
:1017F0007000000000000000000000000000000178
:1018000001010101010100000000000000000030A2
:10181000300000000000000000008060180400603C
:1018200018060100000000E010080810E000000F9A
:10183000102020100F00001010F800000000002001
:10184000203F202000000070080808887000003049
:1018500028242221300000300888884830000018F1
:10186000202020110E000000C02010F8000000070A
:101870000424243F240000F8088888080800001980
:10188000212020110E0000E0108888180000000FB1
:10189000112020110E0000380808C8380800000088
:1018A000003F000000000070880808887000001CDD
:1018B000222121221C0000E010080810E000000096
:1018C000312222110F00000000C0C0000000000003
:1018D0000030300000000000008000000000000028
:1018E000806000000000000080402010080000011F
:1018F00002040810200040404040404040000404E2
:1019000004040404040000081020408000000020AB
:10191000100804020100007048080808F0000000E8
:10192000003036010000C030C828E810E000071879
:10193000272423140B000000C038E0000000203CE6
:1019400023020227382008F8888888700000203F8A
:10195000202020110E00C0300808080838000718A1
:1019600020202010080008F808080810E000203F98
:10197000202020100F0008F88888E8081000203F79
:1019800020202320180008F88888E8081000203F4D
:10199000200003000000C0300808083800000718C5
:1019A0002020221E020008F808000008F808203F46
:1019B000210101213F20000808F80808000000204C
:1019C000203F2020000000000808F8080800C08020
:1019D00080807F00000008F888C028180800203F99
:1019E00020012638200008F8080000000000203FF1
:1019F00020202020300008F8F800F8F80800203FE8
:101A0000003F003F200008F830C00008F808203FE1
:101A1000200007183F00E01008080810E0000F1031
:101A2000202020100F0008F808080808F000203FC8
:101A3000210101010000E01008080810E0000F1863
:101A4000242438504F0008F8888888887000203F88
:101A50002000030C30200070880808083800003887
:101A6000202121221C00180808F80808180000008E
:101A7000203F2000000008F808000008F808001FB8
:101A8000202020201F000878880000C838080000A7
:101A900007380E010000F80800F80008F800033CC1
:101AA0000700073C03000818688080681808203089
:101AB0002C03032C30200838C800C8380800000068
:101AC000203F2000000010080808C838080020380F
:101AD000262120201800000000FE02020200000063
:101AE000007F40404000000C30C0000000000000BB
:101AF00000010638C00000020202FE0000000040A3
:101B000040407F00000000000402020204000000C8
:101B100000000000000000000000000000008080C5
:101B200080808080808000020204000000000000AD
:101B3000000000000000000080808080000000198C
:101B4000242222223F2008F8008080000000003F6D
:101B5000112020110E000000008080800000000E87
:101B6000112020201100000000808088F800000E65
:101B7000112020103F200000808080800000001F86
:101B8000222222221300008080F0888888180020FA
:101B9000203F202000000000808080808000006BBB
:101BA00094949493600008F8008080800000203FA7
:101BB000210000203F2000809898000000000020B5
:101BC000203F20200000000000809898000000C006
:101BD0008080807F000008F8000080808000203F27
:101BE00024022D302000000808F80000000000202A
:101BF000203F202000008080808080808000203F67
:101C000020003F20003F8080008080800000203F37
:101C1000210000203F200000808080800000001F05
:101C2000202020201F00808000808000000080FF96
:101C3000A12020110E000000008080808000000E96
:101C4000112020A0FF8080808000808080002020E4
:101C50003F21200001000000808080808000003350
:101C6000242424241900008080E0808000000000EB
:101C7000001F202000008080000000808000001FE6
:101C8000202020103F208080800000808080000184
:101C90000E300806010080800080008080800F30B8
:101CA0000C030C300F00008080008080800000203A
:101CB000312E0E3120008080800000808080808165
:101CC0008E701806010000808080808080000021D6
:101CD000302C2221300000000000807C0202000035
:101CE0000000003F404000000000FF000000000036
:101CF0000000FF0000000002027C800000000040A5
:101D0000403F000000000006010102020404000040
:101D10000000000000000000381D00080000002046
:101D200044000000280100087C1D00084400002039
:101D300064060000440100080000803F000000002D
:101D40000000000000000000400600004006000007
:101D500040060000400600000000000000000000F7
:101D60000000000000000000320000000000000041
:0C1D700000000000000000000000000067
:04000005080000ED02
:00000001FF
